{
  "transactions": [
    {
      "hash": "0x883e7b6f30f27864aa22d0a3afb4782a13348f9bbe411babc0cb26e5b3ea722f",
      "transactionType": "CALL",
      "contractName": null,
      "contractAddress": "0x779877A7B0D9E8603169DdbD7836e478b4624789",
      "function": "transferAndCall(address,uint256,bytes)",
      "arguments": [
        "0x8103B0A8A00be2DDC778e6e7eaa21791Cd364625",
        "3000000000000000000",
        "0x000000000000000000000000000000000000000000000000000000000000224b"
      ],
      "transaction": {
        "type": "0x02",
        "from": "0x4a3af8c69cee81182a9e74b2392d4bdc616bf7c7",
        "to": "0x779877a7b0d9e8603169ddbd7836e478b4624789",
        "gas": "0x1b43f",
        "value": "0x0",
        "data": "0x4000aea00000000000000000000000008103b0a8a00be2ddc778e6e7eaa21791cd36462500000000000000000000000000000000000000000000000029a2241af62c000000000000000000000000000000000000000000000000000000000000000000600000000000000000000000000000000000000000000000000000000000000020000000000000000000000000000000000000000000000000000000000000224b",
        "nonce": "0xa",
        "accessList": []
      },
      "additionalContracts": [],
      "isFixedGasLimit": false
    }
  ],
  "receipts": [
    {
      "transactionHash": "0x883e7b6f30f27864aa22d0a3afb4782a13348f9bbe411babc0cb26e5b3ea722f",
      "transactionIndex": "0x1f",
      "blockHash": "0x2aa05a6b4320edf5a8920aede10553bda6de4a439033e855b58f840a454d90bc",
      "blockNumber": "0x4e54e3",
      "from": "0x4a3aF8C69ceE81182A9E74b2392d4bDc616Bf7c7",
      "to": "0x779877A7B0D9E8603169DdbD7836e478b4624789",
      "cumulativeGasUsed": "0x23fbe7",
      "gasUsed": "0x12a4a",
      "contractAddress": null,
      "logs": [
        {
          "address": "0x779877A7B0D9E8603169DdbD7836e478b4624789",
          "topics": [
            "0xddf252ad1be2c89b69c2b068fc378daa952ba7f163c4a11628f55a4df523b3ef",
            "0x0000000000000000000000004a3af8c69cee81182a9e74b2392d4bdc616bf7c7",
            "0x0000000000000000000000008103b0a8a00be2ddc778e6e7eaa21791cd364625"
          ],
          "data": "0x00000000000000000000000000000000000000000000000029a2241af62c0000",
          "blockHash": "0x2aa05a6b4320edf5a8920aede10553bda6de4a439033e855b58f840a454d90bc",
          "blockNumber": "0x4e54e3",
          "transactionHash": "0x883e7b6f30f27864aa22d0a3afb4782a13348f9bbe411babc0cb26e5b3ea722f",
          "transactionIndex": "0x1f",
          "logIndex": "0x20",
          "removed": false
        },
        {
          "address": "0x779877A7B0D9E8603169DdbD7836e478b4624789",
          "topics": [
            "0xe19260aff97b920c7df27010903aeb9c8d2be5d310a2c67824cf3f15396e4c16",
            "0x0000000000000000000000004a3af8c69cee81182a9e74b2392d4bdc616bf7c7",
            "0x0000000000000000000000008103b0a8a00be2ddc778e6e7eaa21791cd364625"
          ],
          "data": "0x00000000000000000000000000000000000000000000000029a2241af62c000000000000000000000000000000000000000000000000000000000000000000400000000000000000000000000000000000000000000000000000000000000020000000000000000000000000000000000000000000000000000000000000224b",
          "blockHash": "0x2aa05a6b4320edf5a8920aede10553bda6de4a439033e855b58f840a454d90bc",
          "blockNumber": "0x4e54e3",
          "transactionHash": "0x883e7b6f30f27864aa22d0a3afb4782a13348f9bbe411babc0cb26e5b3ea722f",
          "transactionIndex": "0x1f",
          "logIndex": "0x21",
          "removed": false
        },
        {
          "address": "0x8103B0A8A00be2DDC778e6e7eaa21791Cd364625",
          "topics": [
            "0xd39ec07f4e209f627a4c427971473820dc129761ba28de8906bd56f57101d4f8",
            "0x000000000000000000000000000000000000000000000000000000000000224b"
          ],
          "data": "0x000000000000000000000000000000000000000000000000000000000000000000000000000000000000000000000000000000000000000029a2241af62c0000",
          "blockHash": "0x2aa05a6b4320edf5a8920aede10553bda6de4a439033e855b58f840a454d90bc",
          "blockNumber": "0x4e54e3",
          "transactionHash": "0x883e7b6f30f27864aa22d0a3afb4782a13348f9bbe411babc0cb26e5b3ea722f",
          "transactionIndex": "0x1f",
          "logIndex": "0x22",
          "removed": false
        }
      ],
      "status": "0x1",
      "logsBloom": "0x0000001400000000000000000000000000000000000000020000000002000000000000000000800000000000000000000000000000000000000000000000000000000000000000000000000800000000000000000000008008002000000000000000000000000000000082000000000000000000400000000000001000000000000000000c000020000000000000800010000020000000000000000000000000000000000000040000000000000000000000000000000000000400000000000000000002000000000000000000000000000000000000000100000000000000000000000000000000000000000000000000000000000000000000000080000000",
      "type": "0x2",
      "effectiveGasPrice": "0x1028ac6283"
    }
  ],
  "libraries": [],
  "pending": [],
  "returns": {},
  "timestamp": 1705934990,
  "chain": 11155111,
  "multi": false,
  "commit": "170627d"
}