{
  "transactions": [
    {
      "hash": "0x883e7b6f30f27864aa22d0a3afb4782a13348f9bbe411babc0cb26e5b3ea722f",
      "transactionType": "CALL",
      "contractName": null,
      "contractAddress": "0x779877A7B0D9E8603169DdbD7836e478b4624789",
      "function": "transferAndCall(address,uint256,bytes)",
      "arguments": [
        "0x8103B0A8A00be2DDC778e6e7eaa21791Cd364625",
        "3000000000000000000",
        "0x000000000000000000000000000000000000000000000000000000000000224b"
      ],
      "transaction": {
        "type": "0x02",
        "from": "0x4a3af8c69cee81182a9e74b2392d4bdc616bf7c7",
        "to": "0x779877a7b0d9e8603169ddbd7836e478b4624789",
        "gas": "0x1b43f",
        "value": "0x0",
        "data": "0x4000aea00000000000000000000000008103b0a8a00be2ddc778e6e7eaa21791cd36462500000000000000000000000000000000000000000000000029a2241af62c000000000000000000000000000000000000000000000000000000000000000000600000000000000000000000000000000000000000000000000000000000000020000000000000000000000000000000000000000000000000000000000000224b",
        "nonce": "0xa",
        "accessList": []
      },
      "additionalContracts": [],
      "isFixedGasLimit": false
    }
  ],
  "receipts": [],
  "libraries": [],
  "pending": [
    "0x883e7b6f30f27864aa22d0a3afb4782a13348f9bbe411babc0cb26e5b3ea722f"
  ],
  "returns": {},
  "timestamp": 1705934981,
  "chain": 11155111,
  "multi": false,
  "commit": "170627d"
}